:0C00000043C0FECF76C0FCCFFBCFFACF90
:10000C00F9CFF8CFF7CF69C0F5CFF4CFF3CFF2CF5C
:10001C00F1CFF0CFEFCFEECFEDCF0000446973748A
:10002C00616E63653D256420636D200052617A69C1
:10003C00796568204B65687461726900426168611A
:10004C007265204A61766164690053657420706F33
:10005C00696E743D256420636D200044697374617E
:10006C006E63653D532E70202020200080C001005F
:10007C00020026000200820178000000F894EE27AE
:10008C00ECBBF1E0FBBFEBBFE5BFF8E1F1BDE1BDBF
:10009C008DE0A2E0BB27ED938A95E9F780E094E030
:1000AC00A0E6ED930197E9F7EAE7F0E085919591E9
:1000BC00009761F0A591B59105901590BF01F001E5
:1000CC0005900D920197E1F7FB01F0CFEFE5EDBF45
:1000DC00E4E0EEBFC0E6D1E056C0EA93EFB753942C
:1000EC00EFBFE99118950A921A92FA926A937A9351
:1000FC008A939A93AA93BA93EA93FA93EFB7EA93F3
:10010C0020FC07C0E2E0E3BF689420F8E8E0E5BF1C
:10011C002CC0ECE0E5BFE0E0E3BFA52D29D3E0E087
:10012C00F1E0C4D3DF01E2B7F0E0EA0FFB1F22D30A
:10013C00E0936001F093610160936201709363013D
:10014C00E4E6F1E019D3E8E2F0E016D318D325D3B6
:10015C00A0E07DD2A4E6B1E0AAD285E38A95F1F7BE
:10016C00E0E0E2BF5524E89420F8E991EFBFF99163
:10017C00E991B991A9919991899179916991F990A4
:10018C0019900990189561970EE110E0E4E8E1BB35
:10019C00969A959AE0E0E3BFE2BFE1E0E9BFEBB7E6
:1001AC00E068EBBFECE0E5BFE0E8EABFA0E19FD27E
:1001BC005BD2A8E3B0E089D2A1E0F6D2F7D2A8E4F2
:1001CC00B0E083D2A8EBBBE04AD37894929A88E251
:1001DC008A95F1F79298AEE5B1E041D3869904C0C7
:1001EC00869BFECF0F5F1F4F859904C0859BFECF6A
:1001FC0001501040FE01C0D2E6E5F0E0BDD2F8019E
:10020C00B9D2CBD2A1E023D2DE0151D2B8D2DF01D8
:10021C00CB01F801AFD299D331F4979AC7D2A7E6A4
:10022C00B0E053D201C09798D1CFFFCFC3D296D3B1
:10023C00C4D2129677D33097F1F0BFD2C1D28F01CE
:10024C00309761F00230E0E01E07A0F0F801319722
:10025C008F01AA81BB811496ED93FC93AED21296BA
:10026C00B2D23197AC81A083A8D25CD3FF2312F019
:10027C00A4D2A9D205C0A1D2EFEFFFEFED93FC936E
:10028C0074D32596089596D22C9764D310E0AA893E
:10029C00BB89E0E0F0E0ED93FC93E88DF98D3196AD
:1002AC00E88FF98F3197E4912E2FE03009F46DC16E
:1002BC00E12FE03031F4253211F411E001C089D284
:1002CC0063C1E130B9F4253211F483D25CC112E080
:1002DC00E0E0E98B00E02D3211F401E055C12B3246
:1002EC0019F4EBE2E98B50C1203219F4E0E2E98B0E
:1002FC004BC102C0E23039F450E013E0203311F46A
:10030C00006842C102C0E33091F4203310F02A336C
:10031C0008F007C0AAE05A9F502DE22FE0535E0F61
:10032C0033C140E02E3211F414E02EC10EC0E43083
:10033C0091F4203310F02A3308F007C0AAE04A9F4A
:10034C00402DE22FE0534E0F1FC12C3619F40260E2
:10035C0015E01AC103C0E53009F016C1E22FE336EF
:10036C0039F43ED240D23CD2A481AA9340D20BC1E4
:10037C00E33731F442D243D245D2E3D11E2F08C029
:10038C00E03791F43AD23BD23DD2E6D11E2F086031
:10039C000F77403011F0411708F001C0142F40E0E6
:1003AC00E0E0E88B30E062C0E43611F0E93611F49D
:1003BC00046002C0E53791F4EAE0E88B01FF07C066
:1003CC00E0E0FAEC6AE97BE322D21AE01FC0E0E13C
:1003DC00F7E260E070E01BD215E018C0E83511F4CC
:1003EC00086003C0E83709F0CEC0E0E1E88B01FFFC
:1003FC0007C0E0E0F0E060E070E109D218E006C070
:10040C00E0E0F0E160E070E002D214E0403011F086
:10041C000F7701C041E001FF06C0EFD1AE89BF8963
:10042C00149684D20AC002FF04C0E7D1E8D1A2D14D
:10043C0004C0E3D1E4D166277727EC87FD876E876C
:10044C007F8702FF12C0AF85AA2342F4EC85FD859D
:10045C006E857F8516D2E0D1EDE2E98BE989E0303B
:10046C0019F01F5F4F5F01C00B7F342F00FD13C0CD
:10047C00151710F4351708F00EC007FF08C002FF5F
:10048C0004C00B7F2989115001C020E301C020E278
:10049C00A0D15150EDCF141788F4006102FF06C0B3
:1004AC00C0D1503009F0515011504150E0E3EA9363
:1004BC009ED1503009F051504150EDCF312FE88989
:1004CC00E030B1F4303099F003FF06C0EE81FF81CB
:1004DC002591EE83FF8305C0AE81BF812D91AE8344
:1004EC00BF8377D1503009F051503150EBCF42C01F
:1004FC009CD1E1D12E2F2A3030F003FF02C0295CB1
:10050C0001C0295A01C0205D04FD1EC0213348F4EE
:10051C0095D1A130E0E0BE07E0E08E07E0E09E0759
:10052C0009F40BC0431740F4531710F000FF01C03F
:10053C000FC020E207FF08C020E3006102FF04C0E7
:10054C0070D1503009F0515044D1503009F0515015
:10055C0031506BD1D5D160D1E88970D1FF27662796
:10056C007727A9D154D1E885F9856A857B85E9D1AE
:10057C0009F0BECF00FF07C0503029F05150E0E227
:10058C00EA9335D1F9CF10E088CEAA89BB89CAD1BC
:10059C00E8D16A960895FF92F82E2697DDD153D1B3
:1005AC00309719F4EFEFFFEF1DC0DE01169661D105
:1005BC008D0149D1EE83FF83E0E0E887E987DE0116
:1005CC001A9657D1AFD1D8D01A930A93ECE1F1E037
:1005DC00D3D0DE011A9657DE9F01AE81BF81E0E0D9
:1005EC00EC93F901C0D12A96FF900895AA93E88163
:1005FC00E07111F0C39A01C0C398E881E07211F068
:10060C00C29A01C0C298E881E07411F0C19A01C08D
:10061C00C198E881E07811F0C09A01C0C09885E0DB
:10062C008A95F1F7C49A8DE08A95F1F7C4988DE01C
:10063C008A95F1F784C0AA93A881D8DFE881E29566
:10064C00E883A881D3DF85E88A95F1F778C0AA936F
:10065C00E881F0E0EE57FE4FE081A981AE0FEBDFB1
:10066C004980788022960895A2E0E5DFA3E09CD033
:10067C00ACE0E1DFA1E0DFDFA3E096D0E0E07E2E8E
:10068C004E2E0895AA93A881AA3011F0461448F072
:10069C00E0E0EA937394A72DDADFA881AA3009F47D
:1006AC004EC04394C69AA881C6DFC69848C082D073
:1006BC001A93A981BA81ED91A983BA831E2FE030D8
:1006CC0019F0A12FDFDFF5CF0FC074D01A93E98199
:1006DC00FA813196E983FA833197E4911E2FE03049
:1006EC0019F0A12FCFDFF3CF188123960895AA9389
:1006FC00BB9ABA9AB99AB89ABC9ABE9ABD9AC4983F
:10070C00C698C5986880E881E058E0938401E88138
:10071C00E054E0938501A4E147D09AD099D098D0C9
:10072C00A0E264DF88EC90E00197F1F7A8E283DFA8
:10073C00A4E081DFA5E87FDFA6E07DDF95DF2196D1
:10074C00089538D0A991B991EE27FF276D916623B2
:10075C0011F03196FBCF08952DD0AA27BB27E99134
:10076C00F9910590002011F01196FBCFFD01089531
:10077C00B0E008958ED00895FA93EA930895A0916D
:10078C006001B09161018091620190916301EAE393
:10079C00F0E060E070E08FD00895CED084E0FBDE16
:1007AC002896E0E0EA930895E3DF59C0E0E0EA938D
:1007BC00A1E04DCFBA93AA930895AA81BB81089565
:1007CC001496B0D00895ED91FD913196FE93EE9371
:1007DC0008952A93AB89BC89ED89FE890995089502
:1007EC00EE89FF8908953497EE8BFF8B0895AB89C2
:1007FC00BC89ED89FE8909950895F2DFF4CFAE89A5
:10080C00BF89DECFEE83FF83AE81BF810895E88779
:10081C00F9876A877B870895EC87FD876E877F87CA
:10082C0008950B7FE989EA93E2CFE885F9856A851B
:10083C007B85AC85BD858E859F850895A885B985FA
:10084C008A859B850895DE011C9613D06BD0089584
:10085C00A0E3CCDE88EC90E00197F1F708951096B8
:10086C0039F080ED97E00197F1F7A8951197C9F74A
:10087C0008950024AF0DB01D0895F195E195F04059
:10088C000895F09560957095E195FF4F6F4F7F4FF0
:10089C0008956F2F660F660B762F0895FA9FF02D33
:1008AC00EB9FF00DEA9FE02DF10D08952DD0F6DFB2
:1008BC000EF4E3DF08953F934F935F9300241124CC
:1008CC004427552730E2AA0FBB1F881F991F001C15
:1008DC00111C441F551F0E1A1F0A460B570B28F4E8
:1008EC000E0E1F1E461F571F01C0A1603A9559F7E7
:1008FC00FD01BC01D001CA015F914F913F91089558
:10090C00DADFFD01BC010895E894F7FF02C0B5DF02
:10091C006894B7FF06C0A095B095119600F80394A3
:10092C0000FA0895ED91FC9111970895ED91FD91C8
:10093C006D917C91139708957A936A93FA93EA9345
:10094C0008953097604070400895EA17FB076807D8
:10095C00790708955A934A933A932A931A930A93D0
:10096C0008955D814C813B812A811981088108950C
:00000001FF
