:200000000C9462000C9400000C9400000C9400000C9400000C9400000C9400000C9400007E
:200020000C9400000C948F000C9400000C9400000C9400000C9400000C9400000C94000031
:200040000C9400000C9400000C9400000C9400000C940000000A1F1F0E04000020686173CA
:20006000616E20656D61726174692000556C747261736F6E6963206D657465722000646940
:200080007374616E63653D00636D006F7574206F662072616E6765202020200080C001009A
:2000A0002D4E414E00494E460000100060015C00120070016C000200AA019C000100AE01A4
:2000C0009E000000F894EE27ECBBF1E0FBBFEBBFE5BF8DE0A2E0BB27ED938A95E9F780E0B1
:2000E00094E0A0E6ED930197E9F7EAEAF0E085919591009761F0A591B59105901590BF01D0
:20010000F00105900D920197E1F7FB01F0CFEFE5EDBFE4E0EEBFC0E6D1E00C94C8006A93E2
:200120007A93AA93BA93EA93FA93EFB7EA93A2E8B1E00E940C06EF5FFF4F6F4F7F4F0E9462
:200140001106E0E0E2BFE991EFBFF991E991B991A991799169911895AA931A930A93EA81D4
:20016000EE0FEE0FEE0FE0640E2F10E0183060F40A930395EC81FD813196EC83FD833197DD
:20018000A49115D11F5FF2CF1981088125960895E1E0EABBE0E0EBBBEFEFE1BBE0E0E2BBE7
:2001A000E1E0E4BBE0E0E2BBE2E0E3BFE0E0E2BFECBFE1E0E9BFA0E10E942F02E4E5F0E0BC
:2001C000FA93EA93A0E0C8DF78940E947F03A0E6B1E023D10E947F03A0E00AD1EFE00E94C3
:2001E0008403A0E005D1A8EEB3E00E940A04F4D0A0E7B1E012D1A8EBBBE00E940A04ECD0F0
:20020000D89A8BE18A95F1F7D898C99BFECFE0E0E0938201E0938301E0938401E0938501BA
:20022000E2BFE2E0E3BFC999FECFE0E0E3BFE0918201F091830160918401709185010E9490
:200240008803E0938A01F0938B0160938C0170938D010E94CA050E947E04A1E2B3E98CE0D5
:200260009DE30E940A05E0939201F093930160939401709395010E9497030E94A00308F096
:200280005AC0AAD00E947F030E94A803E0919201F091930160919401709195010E94AE03D0
:2002A000999B04C0A8EEB3E00E940A04A8E8B0E00E94BA03E0918601F09187016091880173
:2002C000709189010E948803E0938E01F0938F0160939001709391010E94CA050E947E04A3
:2002E000AEEAB7E489E092E40E940A05E0939601F093970160939801709399010E949703B1
:20030000A233E5E7BE07E0E08E07E0E09E0798F063D00E947F030E94A803E0919601F09108
:20032000970160919801709199010E94AE03A9E8B0E00E94BA030E949703A133E5E7BE078C
:20034000E0E08E07E0E09E0748F0A89AE2E0EA93A1E035D0ABE8B0E00E94BA030E949703E6
:200360000E94A00310F438D0A8984ACFFFCFAA93E2B3EF70AE2FE881E07FEA2BE2BB8DE010
:200380008A95F1F7929A8DE08A95F1F792988DE08A95F1F790C0AA93A881E9DFE881E295BA
:2003A000E883A881E4DF85E88A95F1F784C0AA93A981F1DF909AA881EEDF90980BC0AA93A7
:2003C000E881F0E0E655FE4FE081A981AE0FE3DF5980488022960895A2E00E94C003ACE0E9
:2003E000DADFA1E00E94C003E0E04E2E5E2E0895AA93A881AA3011F0571448F0E0E0EA93D8
:200400004394A42DDCDFA881AA3009F454C05394909AA881C0DF90984EC0BA93AA931A931F
:20042000A981BA81ED91A983BA831E2FE03019F0A12FDEDFF5CF10C0BA93AA931A93E98148
:20044000FA813196E983FA833197E4911E2FE03019F0A12FCDDFF3CF188123960895AA9364
:20046000E1B3E06FE1BB8A9A889A899A9298909891987880E881E058E093AC01E881E054C3
:20048000E093AD01A4E1B0E00E940A040E94C6030E94C6030E94C603A0E269DF88EC90E087
:2004A0000197F1F7A8E277DFA4E075DFA5E873DFA6E071DF91DF21960895BA93AA93249746
:2004C000E0E0E883E983EA83EFE3EB831A930A93EB85FC85EF3FAFEFFA0739F40E94CE0330
:2004E000A0EAB0E00E947203B1C0EF3FAFE7FA0739F40E94CE03A1EAB0E00E947203A6C05D
:20050000AC85AA2362F4E985FA856B857C850E9414040E94D3030E94D803EDE2EC93A8857F
:20052000A73010F0E6E0E8871885E12F1150E03039F00E94DF030E94E4030E94EB03F5CF07
:200540000E94F0030E94BA040E94D30310E0E0E0F0E060E87FE30E94EB030E94F0030E943D
:200560009D0588F00E94DF030E94F9030E94EB031F5F173238F00E94CE03A5EAB0E00E948C
:20058000720364C0EACF103029F40E94D803E0E3EC932FC0E12F1150E03059F10E94DF03AF
:2005A0000E94E403A0E0B0E080E09FE30E94BA04DF01CB010E945B030E94EB030E94F0038F
:2005C0000E9458050E9447040E2F0E94D803E02FE05DEC93E02FF0E00E94DF030E94CF05D1
:2005E0000E9480040E940A050E9400040E940504D1CFE885E03031F10E94D803EEE2EC93C8
:20060000E885E150E887EF5FE9F00E9400040E94F9030E94D303E985FA856B857C850E946A
:2006200047040E2F0E94D803E02FE05DEC93E02FF0E00E9400040E94CF050E9480040E9427
:200640000504DECFAE81BF81E0E0EC93198108812D9608950E942A067B816A81F981E88117
:2006600077FB770F67FD7160972F9E5781F078F0983190F4AA27BB27882708948795B79506
:20068000A7959A95D1F7EA23FB23682305C0E8947727EE27FF2766276F77769508F4606815
:2006A00077F9A991B99189919991EA17FB076807790797FB08950E942A060E941B060E94AA
:2006C0002A030E94200619F40E94160609C0E6F70E941606A0E0B0E080E89FE30E94B304A3
:2006E00024960895BA93AA93E991F991A991B991CD0105900D920020E1F7FC010895E0E03D
:20070000EA93A0E00C94DF01EA93A0E00C94DF01A0E0B1E080E090E00E94F405DF01CB01B7
:20072000E2B7F0E00E94CF050E94BD050895A0918A01B0918B0180918C0190918D01089566
:20074000A033E5E7BE07E0E08E07E0E09E070895AEE7B0E00E941C02E9E0D6CF0E942506BE
:20076000E1E0EA93AAE9B1E00E945D02AAE9B1E00C940D020E941C02A4E6B0E00C940A04BB
:200780000E94CB01A3E0B0E00C940A04A0E30E94B70188EC90E00197F1F70895EE81FF815D
:2007A000FA93EA930895E987FA876B877C870895AE81BF811196AE83BF8311970895AA8116
:2007C000BB818C819D810895EDECFCEC6CEC7DE30E940A050895EA83FB836C837D830895D7
:2007E000EA81FB816C817D81A985BA858B859C850895E0E0F0E060E271E40E940A05089577
:20080000A985BA858B859C8508950E942F060E94B304C9CF109639F080ED97E00197F1F7A2
:20082000A8951197C9F7089530976040704009F070580895552342F4503811F4E0FF04C023
:200840003196691F791F6BF050E8572711F45F93CFC05F3F31F0660F000C57956795752F4E
:2008600008955F9300200AF0CFC0C8C050E8192E1522880F991F9527550F879550E8072E0A
:200880000522660F771F7527550F67950895689401C0E8945F93F2DF703818F07F3F08F427
:2008A000A7C056E1571BAAF4519558300EF4593030F0EFEFFFEF6FEF7FE777F91AC07727F9
:2008C0005523B9F0EE0FFF1F661F771F5A95D1F710C07727583028F0EF2FF62F672F58507B
:2008E000F9CF552331F076956795F795E7955A95D1F700200AF446D15F910895689401C052
:20090000E894309760407040B1F0002426F0772312F4009437D1172E7EE1112032F07A9527
:20092000EE0FFF1F661F111CF9CFEF2FF62F612D5F938ADF5F9108954F93AF01FD01DA01FE
:20094000AB01BC01CA01402D012C142E4F910895EA0FFB1F681F0895E095F0956095EF5F96
:20096000FF4F6F4F08955F9381DF903871F150E8152604C05F937ADF903839F1703821F124
:20098000572F591B2BF112F4D7DFFACF583118F0AA27BB278827583028F0AB2FB82F8827B9
:2009A0005850F9CF552329F08695B795A7955A95D9F7502D512572F0CBDF38F46795F79521
:2009C000E795739513F420C0B7DF3EDF5F910895D8F7FBCFEA1BFB0B680B51F010F400947C
:2009E000BBDF662392F3EE0FFF1F661F7A95CBF7EE27FF27662777275F910895EFEFFFEF1F
:200A00006FE77FEF5F910895EFEFFFEF6FE77FE75F9108955F932ADF703851F3903841F38D
:200A200001240894791F23F41CF300203AF3ECCF0F921F932F933F934F9311272227992725
:200A4000689FA0018F9F302D410D591F6B9F300D411D591F8E9F27D0BF9F25D06A9F23D00D
:200A6000BE9F1DD0AF9F1BD0AE9F110D291F391F491F591FE32FF42F652F522F4F913F910E
:200A80002F911F910F9066232AF0550FEE1FFF1F661F02C073954BF2CDDE5F910895100D34
:200AA000211D391F02C0200D311D491F591F08955F93DCDE703821F411200AF49FCFA4CF6D
:200AC000903809F495CF01240894970B1BF4D4F30020F3CF792F1F932F933F934F931124CD
:200AE0001127222733274427552790E2AE17BF078607410730F0AE1BBF0B860B410B089436
:200B000001C08894551F221F331F111CAA1FBB1F881F441F9A9551F7F901612D4F913F9168
:200B20002F911F91662332F0550FEE1FFF1F661F7A9543F27FDE5F91089599239AF0772378
:200B400042F0971748F029F4AE17BF07860720F031F0989488940895989408940895189421
:200B6000889408957723C2F7971798F3A9F7EA17FB07680788F399F3ECCFEA0FFB1F681FC2
:200B8000791F0895F09560957095E195FF4F6F4F7F4F089576956795F795E79508956F2F6A
:200BA000660F660B762F08957A9F702D6B9F700DF89F700DE99F700D6A9F602D710DFB9F09
:200BC000600D711DE89F600D711D8827FA9FF02D610D781FEB9FF00D611D781FEA9FE02DFC
:200BE000F10D681F781F089504D0DEDF0EF4CADF0895E89477FF02C0C5DF689497FF0BC0AE
:200C00000024A095B095809590951196801D901D00F8039400FA0895ED91FD916D917D91CD
:200C200008957E936E93FE93EE930895E881F9816A817B810895A881B9818A819B810895C8
:200C4000E883F9836A837B8308957A936A93FA93EA9308959A938A93BA93AA930895182EBD
:180C6000862F612D192E972F712D1B2EBF2FF12D1A2EAE2FE12D089569
:00000001FF
